{
  "contractName": "Farming",
  "abi": [
    {
      "inputs": [
        {
          "internalType": "contract PondToken",
          "name": "_pondToken",
          "type": "address"
        }
      ],
      "stateMutability": "nonpayable",
      "type": "constructor"
    },
    {
      "inputs": [
        {
          "internalType": "address",
          "name": "",
          "type": "address"
        }
      ],
      "name": "hasStaked",
      "outputs": [
        {
          "internalType": "bool",
          "name": "",
          "type": "bool"
        }
      ],
      "stateMutability": "view",
      "type": "function"
    },
    {
      "inputs": [],
      "name": "name",
      "outputs": [
        {
          "internalType": "string",
          "name": "",
          "type": "string"
        }
      ],
      "stateMutability": "view",
      "type": "function"
    },
    {
      "inputs": [],
      "name": "owner",
      "outputs": [
        {
          "internalType": "address",
          "name": "",
          "type": "address"
        }
      ],
      "stateMutability": "view",
      "type": "function"
    },
    {
      "inputs": [],
      "name": "pondToken",
      "outputs": [
        {
          "internalType": "contract PondToken",
          "name": "",
          "type": "address"
        }
      ],
      "stateMutability": "view",
      "type": "function"
    },
    {
      "inputs": [
        {
          "internalType": "uint256",
          "name": "",
          "type": "uint256"
        }
      ],
      "name": "stakers",
      "outputs": [
        {
          "internalType": "address",
          "name": "",
          "type": "address"
        }
      ],
      "stateMutability": "view",
      "type": "function"
    },
    {
      "inputs": [
        {
          "internalType": "address",
          "name": "",
          "type": "address"
        }
      ],
      "name": "stakingBalance",
      "outputs": [
        {
          "internalType": "uint256",
          "name": "",
          "type": "uint256"
        }
      ],
      "stateMutability": "view",
      "type": "function"
    },
    {
      "inputs": [
        {
          "internalType": "uint256",
          "name": "_amount",
          "type": "uint256"
        }
      ],
      "name": "stakeTokens",
      "outputs": [],
      "stateMutability": "nonpayable",
      "type": "function"
    },
    {
      "inputs": [],
      "name": "issueTokens",
      "outputs": [],
      "stateMutability": "nonpayable",
      "type": "function"
    },
    {
      "inputs": [],
      "name": "unstakeTokens",
      "outputs": [],
      "stateMutability": "nonpayable",
      "type": "function"
    }
  ],
  "bytecode": "0x60806040526040518060400160405280600481526020017f4661726d0000000000000000000000000000000000000000000000000000000081525060009080519060200190620000519291906200010e565b503480156200005f57600080fd5b50604051620011bd380380620011bd83398181016040528101906200008591906200023c565b80600260006101000a81548173ffffffffffffffffffffffffffffffffffffffff021916908373ffffffffffffffffffffffffffffffffffffffff16021790555033600160006101000a81548173ffffffffffffffffffffffffffffffffffffffff021916908373ffffffffffffffffffffffffffffffffffffffff16021790555050620002d3565b8280546200011c906200029d565b90600052602060002090601f0160209004810192826200014057600085556200018c565b82601f106200015b57805160ff19168380011785556200018c565b828001600101855582156200018c579182015b828111156200018b5782518255916020019190600101906200016e565b5b5090506200019b91906200019f565b5090565b5b80821115620001ba576000816000905550600101620001a0565b5090565b600080fd5b600073ffffffffffffffffffffffffffffffffffffffff82169050919050565b6000620001f082620001c3565b9050919050565b60006200020482620001e3565b9050919050565b6200021681620001f7565b81146200022257600080fd5b50565b60008151905062000236816200020b565b92915050565b600060208284031215620002555762000254620001be565b5b6000620002658482850162000225565b91505092915050565b7f4e487b7100000000000000000000000000000000000000000000000000000000600052602260045260246000fd5b60006002820490506001821680620002b657607f821691505b60208210811415620002cd57620002cc6200026e565b5b50919050565b610eda80620002e36000396000f3fe608060405234801561001057600080fd5b50600436106100935760003560e01c80638da5cb5b116100665780638da5cb5b1461010c578063a5ce413b1461012a578063c93c8f3414610134578063fd5e6dd114610164578063fe8be5571461019457610093565b806306fdde031461009857806345bc78ab146100b657806360ab5852146100e65780637547c7a3146100f0575b600080fd5b6100a06101b2565b6040516100ad919061099c565b60405180910390f35b6100d060048036038101906100cb9190610a21565b610240565b6040516100dd9190610a67565b60405180910390f35b6100ee610258565b005b61010a60048036038101906101059190610aae565b61040c565b005b610114610690565b6040516101219190610aea565b60405180910390f35b6101326106b6565b005b61014e60048036038101906101499190610a21565b61087e565b60405161015b9190610b20565b60405180910390f35b61017e60048036038101906101799190610aae565b61089e565b60405161018b9190610aea565b60405180910390f35b61019c6108dd565b6040516101a99190610b9a565b60405180910390f35b600080546101bf90610be4565b80601f01602080910402602001604051908101604052809291908181526020018280546101eb90610be4565b80156102385780601f1061020d57610100808354040283529160200191610238565b820191906000526020600020905b81548152906001019060200180831161021b57829003601f168201915b505050505081565b60046020528060005260406000206000915090505481565b600160009054906101000a900473ffffffffffffffffffffffffffffffffffffffff1673ffffffffffffffffffffffffffffffffffffffff163373ffffffffffffffffffffffffffffffffffffffff16146102b257600080fd5b60005b600380549050811015610409576000600382815481106102d8576102d7610c16565b5b9060005260206000200160009054906101000a900473ffffffffffffffffffffffffffffffffffffffff1690506000600460008373ffffffffffffffffffffffffffffffffffffffff1673ffffffffffffffffffffffffffffffffffffffff16815260200190815260200160002054905060008111156103f457600260009054906101000a900473ffffffffffffffffffffffffffffffffffffffff1673ffffffffffffffffffffffffffffffffffffffff1663a9059cbb83836040518363ffffffff1660e01b81526004016103af929190610c45565b6020604051808303816000875af11580156103ce573d6000803e3d6000fd5b505050506040513d601f19601f820116820180604052508101906103f29190610c9a565b505b5050808061040190610cf6565b9150506102b5565b50565b6000811161044f576040517f08c379a000000000000000000000000000000000000000000000000000000000815260040161044690610d8b565b60405180910390fd5b600260009054906101000a900473ffffffffffffffffffffffffffffffffffffffff1673ffffffffffffffffffffffffffffffffffffffff166323b872dd3330846040518463ffffffff1660e01b81526004016104ae93929190610dab565b6020604051808303816000875af11580156104cd573d6000803e3d6000fd5b505050506040513d601f19601f820116820180604052508101906104f19190610c9a565b5080600460003373ffffffffffffffffffffffffffffffffffffffff1673ffffffffffffffffffffffffffffffffffffffff1681526020019081526020016000205461053d9190610de2565b600460003373ffffffffffffffffffffffffffffffffffffffff1673ffffffffffffffffffffffffffffffffffffffff16815260200190815260200160002081905550600560003373ffffffffffffffffffffffffffffffffffffffff1673ffffffffffffffffffffffffffffffffffffffff16815260200190815260200160002060009054906101000a900460ff16610635576003339080600181540180825580915050600190039060005260206000200160009091909190916101000a81548173ffffffffffffffffffffffffffffffffffffffff021916908373ffffffffffffffffffffffffffffffffffffffff1602179055505b6001600560003373ffffffffffffffffffffffffffffffffffffffff1673ffffffffffffffffffffffffffffffffffffffff16815260200190815260200160002060006101000a81548160ff02191690831515021790555050565b600160009054906101000a900473ffffffffffffffffffffffffffffffffffffffff1681565b6000600460003373ffffffffffffffffffffffffffffffffffffffff1673ffffffffffffffffffffffffffffffffffffffff1681526020019081526020016000205490506000811161073d576040517f08c379a000000000000000000000000000000000000000000000000000000000815260040161073490610e84565b60405180910390fd5b600260009054906101000a900473ffffffffffffffffffffffffffffffffffffffff1673ffffffffffffffffffffffffffffffffffffffff1663a9059cbb33836040518363ffffffff1660e01b815260040161079a929190610c45565b6020604051808303816000875af11580156107b9573d6000803e3d6000fd5b505050506040513d601f19601f820116820180604052508101906107dd9190610c9a565b506000600460003373ffffffffffffffffffffffffffffffffffffffff1673ffffffffffffffffffffffffffffffffffffffff168152602001908152602001600020819055506000600560003373ffffffffffffffffffffffffffffffffffffffff1673ffffffffffffffffffffffffffffffffffffffff16815260200190815260200160002060006101000a81548160ff02191690831515021790555050565b60056020528060005260406000206000915054906101000a900460ff1681565b600381815481106108ae57600080fd5b906000526020600020016000915054906101000a900473ffffffffffffffffffffffffffffffffffffffff1681565b600260009054906101000a900473ffffffffffffffffffffffffffffffffffffffff1681565b600081519050919050565b600082825260208201905092915050565b60005b8381101561093d578082015181840152602081019050610922565b8381111561094c576000848401525b50505050565b6000601f19601f8301169050919050565b600061096e82610903565b610978818561090e565b935061098881856020860161091f565b61099181610952565b840191505092915050565b600060208201905081810360008301526109b68184610963565b905092915050565b600080fd5b600073ffffffffffffffffffffffffffffffffffffffff82169050919050565b60006109ee826109c3565b9050919050565b6109fe816109e3565b8114610a0957600080fd5b50565b600081359050610a1b816109f5565b92915050565b600060208284031215610a3757610a366109be565b5b6000610a4584828501610a0c565b91505092915050565b6000819050919050565b610a6181610a4e565b82525050565b6000602082019050610a7c6000830184610a58565b92915050565b610a8b81610a4e565b8114610a9657600080fd5b50565b600081359050610aa881610a82565b92915050565b600060208284031215610ac457610ac36109be565b5b6000610ad284828501610a99565b91505092915050565b610ae4816109e3565b82525050565b6000602082019050610aff6000830184610adb565b92915050565b60008115159050919050565b610b1a81610b05565b82525050565b6000602082019050610b356000830184610b11565b92915050565b6000819050919050565b6000610b60610b5b610b56846109c3565b610b3b565b6109c3565b9050919050565b6000610b7282610b45565b9050919050565b6000610b8482610b67565b9050919050565b610b9481610b79565b82525050565b6000602082019050610baf6000830184610b8b565b92915050565b7f4e487b7100000000000000000000000000000000000000000000000000000000600052602260045260246000fd5b60006002820490506001821680610bfc57607f821691505b60208210811415610c1057610c0f610bb5565b5b50919050565b7f4e487b7100000000000000000000000000000000000000000000000000000000600052603260045260246000fd5b6000604082019050610c5a6000830185610adb565b610c676020830184610a58565b9392505050565b610c7781610b05565b8114610c8257600080fd5b50565b600081519050610c9481610c6e565b92915050565b600060208284031215610cb057610caf6109be565b5b6000610cbe84828501610c85565b91505092915050565b7f4e487b7100000000000000000000000000000000000000000000000000000000600052601160045260246000fd5b6000610d0182610a4e565b91507fffffffffffffffffffffffffffffffffffffffffffffffffffffffffffffffff821415610d3457610d33610cc7565b5b600182019050919050565b7f616d6f756e742063616e6e6f7420626520300000000000000000000000000000600082015250565b6000610d7560128361090e565b9150610d8082610d3f565b602082019050919050565b60006020820190508181036000830152610da481610d68565b9050919050565b6000606082019050610dc06000830186610adb565b610dcd6020830185610adb565b610dda6040830184610a58565b949350505050565b6000610ded82610a4e565b9150610df883610a4e565b9250827fffffffffffffffffffffffffffffffffffffffffffffffffffffffffffffffff03821115610e2d57610e2c610cc7565b5b828201905092915050565b7f5374616b696e672042616c616e63652063616e6e6f7420626520302e00000000600082015250565b6000610e6e601c8361090e565b9150610e7982610e38565b602082019050919050565b60006020820190508181036000830152610e9d81610e61565b905091905056fea264697066735822122042002448acfef605b0b98c8f53f0314f80273abf89c0bed1bcb67a9860d06bb464736f6c634300080b0033",
  "immutableReferences": {},
  "source": "// SPDX-License-Identifier: GPL-3.0\npragma solidity >=0.7.0 <0.9.0;\n\nimport \"./PondToken.sol\";\n\ncontract Farming {\n  //All smart contract logic goes here...\n  string public name = \"Farm\";\n  address public owner;\n  PondToken public pondToken;\n\n  address[] public stakers;\n  mapping(address => uint) public stakingBalance;\n  mapping(address => bool) public hasStaked;\n\n  constructor(PondToken _pondToken) {\n    pondToken = _pondToken;\n    owner = msg.sender;\n  }\n\n  //1. Stake Tokens (Deposit)\n  function stakeTokens(uint _amount) public {\n    //Check for minimum amount.\n    require(_amount > 0, \"amount cannot be 0\");\n\n    //Transfer POND tokens from investor to this contract for STAKING.\n    //Edit: LP tokens will be transferred from investor to this contract for STAKING.\n    pondToken.transferFrom(msg.sender, address(this), _amount);\n\n    //Update Staking Balance\n    stakingBalance[msg.sender] = stakingBalance[msg.sender] + _amount;\n\n    //Add user to stakers array if they haven't staked already.\n    if(!hasStaked[msg.sender]) {\n      stakers.push(msg.sender);\n    }\n\n    //Update a users' staking status\n    hasStaked[msg.sender] = true;\n  }\n\n  //2. Issuing Tokens (Interest)\n  function issueTokens() public {\n    require(msg.sender == owner);\n    for(uint i=0; i<stakers.length; i++) {\n      address recipient = stakers[i];\n      uint balance = stakingBalance[recipient];\n      if(balance > 0) {\n        pondToken.transfer(recipient, balance);\n      }\n    }\n  }\n\n  //3. Un-Stake Tokens (Withdraw)\n  function unstakeTokens() public {\n    uint balance = stakingBalance[msg.sender];\n    require(balance > 0, \"Staking Balance cannot be 0.\");\n    pondToken.transfer(msg.sender, balance);\n\n    stakingBalance[msg.sender] = 0;\n    hasStaked[msg.sender] = false;\n  }\n}",
  "sourcePath": "/Users/geekyants/pond/src/contracts/Farming.sol",
  "compiler": {
    "name": "solc",
    "version": "0.8.11+commit.d7f03943.Emscripten.clang"
  },
  "schemaVersion": "3.4.4",
  "updatedAt": "2022-02-05T22:53:53.051Z",
  "devdoc": {
    "kind": "dev",
    "methods": {},
    "version": 1
  },
  "userdoc": {
    "kind": "user",
    "methods": {},
    "version": 1
  }
}